S015000062616C616E63655F66696E616C2E73726563E0
S11300000C94C0000C94DD000C94DD000C94DD0015
S11300100C94DD000C94DD000C94DD000C94DD00E8
S11300200C94DD000C94DD000C94DD000C94DD00D8
S11300300C94DD000C94AF030C94DD000C94DD00F3
S11300400C94DD000C94DD000C94DD000C94DD00B8
S11300500C94DD000C94DD000C94DD000C94DD00A8
S11300600C94DD000C94DD000C94DD000C94DD0098
S11300700C94DD000C94DD000C94DD006E616E00C8
S1130080696E660000407A10F35A00A0724E180997
S11300900010A5D4E80000E87648170000E40B54EB
S11300A0020000CA9A3B000000E1F50500008096BA
S11300B09800000040420F000000A08601000000EC
S11300C0102700000000E8030000000064000000A6
S11300D000000A00000000000100000000002C766F
S11300E0D888DC674F0823DFC1DFAE59E1B1B7968A
S11300F0E5E3E453C63AE651997696E8E6C28426E7
S1130100EB898C9B62ED407C6FFCEFBC9C9F40F2C2
S1130110BAA56FA5F490055A2AF75C936B6CF9673E
S11301206DC11BFCE0E40D47FEF520E6B500D0ED03
S1130130902E0300943577050080841E080000206B
S11301404E0A000000C80C333333330F986E128309
S11301501141EF8D2114893BE65516CFFEE6DB18DD
S1130160D1844B381BF77C1D901DA4BBE4242032A2
S113017084725E228100C9F124ECA1E53D27BD040F
S113018011241FBECFEFD8E0DEBFCDBF21E0A0E039
S1130190B1E001C01D92AB30B207E1F710E0C0EC52
S11301A0D0E004C02197FE010E94570BCF3BD1073A
S11301B0C9F70E94BA040C94E50C0C940000FC01ED
S11301C060830895242F462FFC0160810E9411034F
S11301D00895462FFC0166836DE30E94E200FFEF61
S11301E026E781E0F15020408040E1F700C00000A4
S11301F00895CF93DF931F92CDB7DEB7462F1982B0
S11302009E012F5F3F4FFC0160810E942F03898173
S11302100F90DF91CF9108951F93CF93DF93EC015B
S1130220162F0E94B50260E0CE010E94F900803AC8
S113023081F02FEF83ED90E3215080409040E1F76F
S113024000C0000060E0CE010E94F900803A09F08D
S113025049C060E0CE010E94E90040E26FE3CE01B4
S11302600E94E20060E0CE010E94F900803A39F079
S11302708FE39CE90197F1F700C00000F3CF9FEFF3
S113028020E782E0915020408040E1F700C0000068
S113029040E06EE3CE010E94E2008FE39CE9019707
S11302A0F1F700C0000040E067E0CE010E94E200E8
S11302B040E06FE3CE010E94E2008FE39CE90197E6
S11302C0F1F700C00000612FCE010E94E9009FEF0A
S11302D029EF80E0915020408040E1F700C0000009
S11302E081E001C080E0DF91CF911F9108950F93C9
S11302F01F93022F10E09A01462FFC0160810E9497
S113030061031F910F910895AF92BF92CF92DF9234
S1130310FF920F931F93CF93DF9300D000D000D0B0
S1130320CDB7DEB78C01CB01F42E2CE0F80111928D
S11303302A95E9F7AE014F5F5F4F26E0FA0111926B
S11303402A95E9F726E06F2D0E9477016A8170E013
S1130350762F66278981682B8C8190E0982F8827D7
S11303602B816C01C22A8E8190E0982F88272D81E1
S11303705C01A22AF4E1FF1609F44BC0FF1540F01A
S113038088E0F81609F4ADC0EEE0FE1671F0DCC0AA
S1130390F8E2FF1609F4A5C08EE2F81609F4A1C02C
S11303A0EAE1FE1609F469C0CFC0072E000C880BE1
S11303B0990B0E94590620E030E040E85DE30E947A
S11303C0EA06F8016083718382839383B601DD0CAE
S11303D0880B990B0E94590620E030E040E85DE369
S11303E00E94EA06F8016483758386839783B501C6
S11303F0BB0C880B990B0E94590620E030E040E8C2
S11304005DE30E94EA06F80160877187828793871B
S11304109BC0072E000C880B990B0E94590620E004
S113042030E041E654E40E94AF05F8016083718333
S113043082839383B601DD0C880B990B0E945906C5
S113044020E030E041E654E40E94AF05F801648303
S1130450758386839783B501BB0C880B990B0E9427
S1130460590620E030E041E654E40E94AF05F8016B
S1130470608771878287938767C0072E000C880B7B
S1130480990B0E94590620E030E040E85DE30E94A9
S1130490EA06F8016083718382839383B601DD0CDD
S11304A0880B990B0E94590620E030E040E85DE398
S11304B00E94EA06F8016483758386839783B501F5
S11304C0BB0C880B990B0E94590620E030E040E8F1
S11304D05DE30E94EA06F80160877187828793874B
S11304E033C0072E000C880B990B0E94590620E09C
S11304F030E048EC52E40E94AF05F8016083718358
S113050082839383B601DD0C880B990B0E945906F4
S113051020E030E048EC52E40E94AF05F801648327
S1130520758386839783B501BB0C880B990B0E9456
S1130530590620E030E048EC52E40E94AF05F8018F
S11305406087718782879387C80126960FB6F894CF
S1130550DEBF0FBECDBFDF91CF911F910F91FF90F2
S1130560DF90CF90BF90AF90089587B18F7C87B90B
S113057088B1806388B9E9EBF0E080818C7F808367
S113058088E48093B8000895ECEBF0E0108284EAEC
S1130590808380818823ECF78091B900887F88303C
S11305A0A1F46093BB0084E88093BC00ECEBF0E022
S11305B080818823ECF79091B900987F983139F0C5
S11305C081E0903429F080E0089580E0089581E08E
S11305D008956093BB0084E88093BC00ECEBF0E0EA
S11305E080818823ECF79091B900987F81E098325C
S11305F009F080E0089584EC8093BC00ECEBF0E01B
S113060080818823ECF78091BB00089584E880936F
S1130610BC00ECEBF0E080818823ECF78091BB0018
S113062008950F931F93CF93DF93EC01042F122FA0
S1130630660F0E94C402882369F0602FCE010E94D5
S1130640E902612FCE010E94E902882319F094E99E
S11306509093BC00DF91CF911F910F910895DF9289
S1130660EF92FF920F931F93CF93DF938C01C62FCA
S1130670D42E7901660F0E94C402D82F8823C1F0BA
S11306806D2DC8010E94E90284E98093BC006C2F9F
S1130690660F6160C8010E94C402D82F882341F00C
S11306A0C8010E940603F701808384E98093BC009B
S11306B08D2FDF91CF911F910F91FF90EF90DF90DD
S11306C008958F929F92AF92BF92CF92DF92EF9252
S11306D0FF920F931F93CF93DF937C01C62FD42FE8
S11306E069015801660F0E94C402182F882349F13A
S11306F06D2FC7010E94E90284E98093BC006C2F2E
S1130700660F6160C7010E94C402182F8823C9F0D4
S113071081E0A81AB10859F0E60146018A0C9B1C35
S1130720C7010E94FB028993C815D905C9F7E601E0
S1130730CA0DDB1DC7010E940603888384E98093E8
S1130740BC00812FDF91CF911F910F91FF90EF900B
S1130750DF90CF90BF90AF909F908F9008951F929D
S11307600F920FB60F921124CF92DF92EF92FF9265
S11307700F931F932F933F934F935F936F937F93A5
S11307808F939F93AF93BF93EF93FF93CF93DF9395
S1130790CDB7DEB7E697DEBFCDBF7E018DE0E80EB4
S11307A0F11C8EE1F70111928A95E9F78E01055D3E
S11307B01F4F8CE0F80111928A95E9F74AE160E055
S11307C071E0CE0101960E948401FE013196D801A8
S11307D0C70141915191619171914D935D936D93D5
S11307E07D93E817F907A9F720E030E040E85FE3DC
S11307F06BA97CA98DA99EA90E9442050E9421068D
S11308006115710551F0AB01772324F44427552772
S1130810461B570B4B3551051CF00E94E5046AC07A
S1130820CB010E94E9046B017C0120E030E0A901C6
S11308300E94E50618167CF520E030E04FE753E40B
S1130840C701B6010E94420520E030E0A9010E94E0
S1130850E506181684F0C701B6010E9421069B0123
S1130860772324F422273327261B370B2E32310516
S11308700CF440C008C00F2EC12CD12CFFE7EF2E82
S1130880F3E4FF2EF02DC701B6010E942806862F3F
S11308900E94DC042FC020E030E04FE753E4C7019E
S11308A0B60190580E94420520E030E0A9010E9460
S11308B0E50618167CF0C701B6010E9421069B01CB
S11308C0772324F422273327261B370B2E323105B6
S11308D08CF008C00F2EC12CD12CFFE7EF2EF3ECC7
S11308E0FF2EF02DC701B60190580E942806862FCE
S11308F00E94D304E6960FB6F894DEBF0FBECDBFB8
S1130900DF91CF91FF91EF91BF91AF919F918F9123
S11309107F916F915F914F913F912F911F910F9113
S1130920FF90EF90DF90CF900F900FBE0F901F902D
S11309301895E1E8F0E0808188608083808185609B
S11309408083EFE6F0E080818260808384E390E03E
S11309509093890080938800089578946CE080E0F7
S113096091E00E940C010E94C3040E9499040E9419
S1130970360508950E94AD04FFCF68E280E091E05F
S11309800E94DF00089584B5836084BD84B5806AC5
S113099084BD85B5816085BD84B1886184B981B128
S11309A08F6081B9089587BD88BD82B1896082B99D
S11309B082B1897F82B9089587BD88BD82B1867F5F
S11309C082B982B1866082B9089582B18F6082B99A
S11309D008950F931F93CF93DF93EE27FF27E81B10
S11309E0F90B2091090130910A01A901481B590B07
S11309F0CA0150930A0140930901209107013091E3
S1130A0008018F01021B130BF0930801E093070107
S1130A109A01220F331F220F331F820F931FCCE240
S1130A20D1E0BE010E94F80A2DE02E9FC0012F9F45
S1130A30900D11249B01280F391FC801880F991F9D
S1130A40880F991F880F991F801B910BBE010E946C
S1130A50F80A620F731F072E000C880B990B0E9473
S1130A605906DF91CF911F910F9108951092C500FF
S1130A7087E68093C40088E18093C10086E0809378
S1130A80C20008955058BB27AA270E945A050C9407
S1130A90AB060E949D0638F00E94A40620F039F4AB
S1130AA09F3F19F426F40C949A060EF4E095E7FBA4
S1130AB00C949406E92F0E94BC0658F3BA176207F7
S1130AC073078407950720F079F4A6F50C94DE06E5
S1130AD00EF4E0950B2EBA2FA02D0B01B901900155
S1130AE00C01CA01A0011124FF27591B99F0593F99
S1130AF050F4503E68F11A16F040A22F232F342FE1
S1130B004427585FF3CF469537952795A795F0402E
S1130B105395C9F77EF41F16BA0B620B730B840B43
S1130B20BAF09150A1F0FF0FBB1F661F771F881FFB
S1130B30C2F70EC0BA0F621F731F841F48F4879553
S1130B4077956795B795F7959E3F08F0B0CF939545
S1130B50880F08F09927EE0F9795879508950E94BE
S1130B60C3050C94AB060E94A40658F00E949D068F
S1130B7040F029F45F3F29F00C94940651110C9431
S1130B80DF060C949A060E94BC0668F39923B1F31D
S1130B90552391F3951B550BBB27AA27621773079F
S1130BA0840738F09F5F5F4F220F331F441FAA1F33
S1130BB0A9F335D00E2E3AF0E0E832D091505040EF
S1130BC0E695001CCAF72BD0FE2F29D0660F771F9D
S1130BD0881FBB1F261737074807AB07B0E809F083
S1130BE0BB0B802DBF01FF2793585F4F3AF09E3F08
S1130BF0510578F00C9494060C94DF065F3FE4F3FF
S1130C00983ED4F3869577956795B795F7959F5F4A
S1130C10C9F7880F911D9695879597F90895E1E096
S1130C20660F771F881FBB1F621773078407BA07F5
S1130C3020F0621B730B840BBA0BEE1F88F7E09550
S1130C4008950E9428066894B1110C94DF06089553
S1130C500E94C40688F09F5798F0B92F9927B7517E
S1130C60B0F0E1F0660F771F881F991F1AF0BA954C
S1130C70C9F714C0B13091F00E94DE06B1E00895C6
S1130C800C94DE06672F782F8827B85F39F0B93FB8
S1130C90CCF3869577956795B395D9F73EF49095FF
S1130CA08095709561957F4F8F4F9F4F0895E8947D
S1130CB009C097FB3EF490958095709561957F4FA0
S1130CC08F4F9F4F9923A9F0F92F96E9BB2793954E
S1130CD0F695879577956795B795F111F8CFFAF45E
S1130CE0BB0F11F460FF1BC06F5F7F4F8F4F9F4F8F
S1130CF016C0882311F096E911C0772321F09EE8ED
S1130D00872F762F05C0662371F096E8862F70E052
S1130D1060E02AF09A95660F771F881FDAF7880F2C
S1130D209695879597F9089597F99F6780E870E0FD
S1130D3060E008959FEF80EC089500240A9416164D
S1130D40170618060906089500240A9412161306B5
S1130D50140605060895092E0394000C11F4882343
S1130D6052F0BB0F40F4BF2B11F460FF04C06F5F5F
S1130D707F4F8F4F9F4F089557FD9058440F551F35
S1130D8059F05F3F71F04795880F97FB991F61F009
S1130D909F3F79F087950895121613061406551F80
S1130DA0F2CF4695F1DF08C0161617061806991FEC
S1130DB0F1CF86957105610508940895E894BB27E1
S1130DC066277727CB0197F908950E94570708F4FF
S1130DD08FEF08950E94FD060C94AB060E949D06B9
S1130DE038F00E94A40620F0952311F00C94940688
S1130DF00C949A0611240C94DF060E94BC0670F32E
S1130E00959FC1F3950F50E0551F629FF001729FAB
S1130E10BB27F00DB11D639FAA27F00DB11DAA1FBA
S1130E20649F6627B00DA11D661F829F2227B00D07
S1130E30A11D621F739FB00DA11D621F839FA00D92
S1130E40611D221F749F3327A00D611D231F849FE2
S1130E50600D211D822F762F6A2F11249F57504039
S1130E609AF0F1F088234AF0EE0FFF1FBB1F661FB4
S1130E70771F881F91505040A9F79E3F510580F07D
S1130E800C9494060C94DF065F3FE4F3983ED4F38D
S1130E90869577956795B795F795E7959F5FC1F721
S1130EA0FE2B880F911D9695879597F90895990FB4
S1130EB00008550FAA0BE0E8FEEF16161706E80720
S1130EC0F907C0F012161306E407F50798F0621B41
S1130ED0730B840B950B39F40A2661F0232B242B16
S1130EE0252B21F408950A2609F4A140A6958FEF35
S1130EF0811D811D0895A0E1B0E0E1E8F7E00C94C4
S1130F000C0B7C011B016A01FC0117821682838190
S1130F1081FF44C39E012F5F3F4F3901F701938145
S1130F20F10193FD859193FF81911F01882309F4B9
S1130F3031C3853239F493FD859193FF81911F016B
S1130F40853239F4B70190E00E944B0C56016501DB
S1130F50E5CF10E0512C912CFFE1F915D8F08B323C
S1130F6079F038F4803279F08332A1F4F92DF0610C
S1130F702EC08D3261F0803369F4292D21602DC09B
S1130F80392D3260932E892D8460982E2AC0E92D44
S1130F90E86015C097FC2DC020ED280F2A3088F496
S1130FA096FE06C03AE0139F200D1124122F19C09B
S1130FB08AE0589E200D1124522EE92DE0629E2EC7
S1130FC010C08E3231F496FCE5C2F92DF0649F2EE8
S1130FD008C08C3621F4292D2068922E02C0883650
S1130FE041F4F10193FD859193FF81911F018111DA
S1130FF0B3CF9BEB980F933020F4992D9061805ED2
S113100007C09BE9980F933008F066C1992D9F7E25
S113101096FF16E09F73992E853619F49064992EE5
S113102008C0863621F4392F3068932E02C011117E
S1131030115097FE07C01C3350F444244394410ECE
S113104027E00BC0183038F027E017E005C027E090
S11310509CE3492E02C0212F412C560184E0A80EA6
S1131060B11CF6016081718182819381042DA301F9
S11310700E945D0B6C01F981FC87F0FF02C0F3FF55
S113108006C091FC06C092FE06C000E205C00DE257
S113109003C00BE201C000E08C858C7019F00111D3
S11310A05AC29BC297FE10C04C0CFC85F4FF04C0CE
S11310B08A81813309F44A94141474F528E02415C0
S11310C078F588E0482E2CC096FC2AC0812F90E049
S11310D08C159D059CF03CEFC3163FEFD30674F0CE
S11310E0892D8068982E0AC0E2E0F0E0EC0FFD1F25
S11310F0E10FF11D8081803319F411501111F4CFE7
S113110097FE0EC044244394410E812F90E0C816EC
S1131110D9062CF41C1904C04424439401C010E0E3
S113112097FE06C01C141D0434F4C601019605C0C4
S113113085E090E002C081E090E001110196112366
S113114031F0212F30E02F5F3F4F820F931F252D69
S113115030E08217930714F4581A01C0512C892DDA
S1131160897049F4552039F0B70180E290E00E947B
S11311704B0C5A94F7CF002329F0B701802F90E04D
S11311800E944B0C93FC09C0552039F0B70180E351
S113119090E00E944B0C5A94F7CF97FE4CC0460146
S11311A0D7FE02C0812C912CC60188199909F3013C
S11311B0E80FF91FFE87ED87960124193109388B52
S11311C02F87012F10E01195019511093FEF831628
S11311D0930629F4B7018EE290E00E944B0CC814E8
S11311E0D9044CF08F8598898815990524F4ED85E8
S11311F0FE85818101C080E3F1E08F1A91082D857D
S11312003E852F5F3F4F3E872D87801691062CF039
S1131210B70190E00E944B0CD9CFC814D90441F413
S11312209A81963320F4953319F43C8534FF81E395
S1131230B70190E04EC08A81813319F09C859F7E6E
S11312409C87B70190E00E944B0C111105C094FCDF
S113125018C085E690E017C0B7018EE290E00E94C6
S11312604B0C1E5F82E001E0080FF301E80FF11D53
S11312708081B70190E00E944B0C802F0113F3CFC3
S1131280E6CF85E490E0B7010E944B0CD7FC06C082
S1131290C114D10441F4EC85E4FF05C0D194C19498
S11312A0D1088DE201C08BE2B70190E00E944B0CA3
S11312B080E32AE0C216D1042CF08F5FFAE0CF1A43
S11312C0D108F7CFB70190E00E944B0CB701C601DB
S11312D0C0960E944B0C54C1833631F0833779F0A9
S11312E0833509F056C020C0560132E0A30EB11C6C
S11312F0F6018081898301E010E0630112C0560188
S1131300F2E0AF0EB11CF601C080D18096FE03C09E
S1131310612F70E002C06FEF7FEFC6010E94400CA6
S11313208C01F92DFF7714C0560122E0A20EB11CE6
S1131330F601C080D18096FE03C0612F70E002C028
S11313406FEF7FEFC6010E94350C8C01F92DF06818
S11313509F2EF3FD1AC0852D90E008171907A8F4F5
S1131360B70180E290E00E944B0C5A94F4CFF6014E
S113137097FC859197FE81916F01B70190E00E94DF
S11313804B0C51105A94015011090115110579F7AC
S1131390F7C0843611F0893661F5560197FE09C00D
S11313A024E0A20EB11CF6016081718182819381D7
S11313B00AC0F2E0AF0EB11CF60160817181072E04
S11313C0000C880B990BF92DFF769F2E97FF09C00F
S11313D090958095709561957F4F8F4F9F4FF068E2
S11313E09F2E2AE030E0A3010E94870CC82EC61865
S11313F03FC0092D853721F40F7E2AE030E01DC05F
S1131400097F8F3691F018F4883559F0C3C08037BE
S113141019F0883711F0BEC0006104FF09C00460F0
S113142007C094FE08C0066006C028E030E005C08E
S113143020E130E002C020E132E0560107FF09C09C
S113144084E0A80EB11CF6016081718182819381D0
S113145008C0F2E0AF0EB11CF6016081718180E03A
S113146090E0A3010E94870CC82EC6180F77902E17
S113147096FE0BC0092D0E7FC11650F494FE0AC0CF
S113148092FC08C0092D0E7E05C0DC2C092D03C07A
S1131490DC2C01C0D12E04FF0DC0FE01EC0DF11DAA
S11314A08081803311F4097E09C002FF06C0D39401
S11314B0D39404C0802F867809F0D39403FD11C01F
S11314C000FF06C01C2DD51480F4150D1D190DC088
S11314D0D51458F4B70180E290E00E944B0CD394E9
S11314E0F7CFD51410F45D1801C0512C04FF10C0BF
S11314F0B70180E390E00E944B0C02FF17C001FD8E
S113150003C088E790E002C088E590E0B7010CC012
S1131510802F867859F001FF02C08BE201C080E27F
S113152007FD8DE2B70190E00E944B0CC11638F420
S1131530B70180E390E00E944B0C1150F7CFCA949E
S1131540F301EC0DF11D8081B70190E00E944B0C7A
S1131550C110F5CF15C0F4E0F51560F584E0581A14
S113156093FE1FC0011127C02C8523FF2AC00CE75E
S113157010E0392D3071932EF8018491811124C02B
S1131580552009F4E4CCB70180E290E00E944B0CB2
S11315905A94F6CFF7018681978126C08FEF9FEF8B
S11315A023C0B70180E290E00E944B0C5A94511082
S11315B0F8CFD8CF512CB701802F90E00E944B0C6C
S11315C0D3CF00E810E0D5CF91108052B70190E05E
S11315D00E944B0C0F5F1F4FCFCF23E0251510F453
S11315E083E0BDCF512CC0CF6096E2E10C94280B70
S11315F097FB072E16F4009407D077FD09D00E94BC
S1131600430B07FC05D03EF4909581959F4F0895B8
S1131610709561957F4F08952F923F924F925F92FC
S11316206F927F928F929F92AF92BF92CF92DF92EE
S1131630EF92FF920F931F93CF93DF93CDB7DEB753
S1131640CA1BDB0B0FB6F894DEBF0FBECDBF0994E7
S11316502A88398848885F846E847D848C849B843E
S1131660AA84B984C884DF80EE80FD800C811B814C
S1131670AA81B981CE0FD11D0FB6F894DEBF0FBE7B
S1131680CDBFED010895AA1BBB1B51E107C0AA1FE2
S1131690BB1FA617B70710F0A61BB70B881F991F0F
S11316A05A95A9F780959095BC01CD010895EE0F48
S11316B0FF1F0590F491E02D0994283008F027E0ED
S11316C03327DA01990F311D87FD9160009661057A
S11316D0710539F432602E5F3D9330E32A95E1F7CA
S11316E008959F3F30F080387105610509F03C5F33
S11316F03C5F3D93913008F08068911DDF93CF9358
S11317001F930F93FF92EF92192F987F9695E92FCD
S113171096959695E90FFF27E252FF4F99273327B5
S1131720EE24FF24A701E70105900894079428F408
S1131730360FE71EF81E491F511D660F771F881FBD
S1131740991F0694A1F70590079428F4E70EF81E54
S1131750491F561FC11D770F881F991F661F0694C6
S1131760A1F70590079428F4F80E491F561FC71FC8
S1131770D11D880F991F661F771F0694A1F7059046
S1131780079420F4490F561FC71FD81F990F661FCF
S1131790771F881F0694A9F784911095177041F05C
S11317A0D695C79557954795F794E7941A95C1F739
S11317B0E4E8F0E068941590159135916591959160
S11317C005907FE27395E118F10A430B560BC90BA0
S11317D0D009C0F7E10CF11E431F561FC91FD01DCD
S11317E07EF4703311F48A95E6CFE894015030F01A
S11317F0080F0AF40027021708F4202F2395022F5C
S11318007A3328F079E37D932A95E9F710C07D9324
S11318102A9589F6069497956795379517951794A1
S1131820E118F10A430B560BC90BD00998F0239524
S11318307E9173957A3308F070E37C932013B8F7A4
S11318407E9170617D9330F0839571E37D9370E3B5
S11318502A95E1F71124EF90FF900F911F91CF91FA
S1131860DF91992787FD90950895FC0105906150BB
S113187070400110D8F7809590958E0F9F1F0895A2
S1131880FC016150704001900110D8F7809590954B
S11318908E0F9F1F08950F931F93CF93DF93FB0128
S11318A0238121FD03C08FEF9FEF2CC022FF16C0C0
S11318B046815781248135814217530744F4A0811E
S11318C0B1819D012F5F3F4F318320838C9326810B
S11318D037812F5F3F4F3783268314C08B01EC0180
S11318E0FB010084F185E02D0995892BE1F6D801EF
S11318F016968D919C911797019617969C938E93AB
S11319001697CE01DF91CF911F910F910895FA019F
S1131910AA27283051F1203181F1E8946F936E7F2A
S11319206E5F7F4F8F4F9F4FAF4FB1E03ED0B4E01B
S11319303CD0670F781F891F9A1FA11D680F791F5C
S11319408A1F911DA11D6A0F711D811D911DA11D6D
S113195020D009F468943F912AE0269F112430197D
S1131960305D3193DEF6CF010895462F4770405D18
S11319704193B3E00FD0C9F7F6CF462F4F70405DC7
S11319804A3318F0495D31FD4052419302D0A9F722
S1131990EACFB4E0A6959795879577956795BA951C
S11319A0C9F700976105710508959B01AC010A2EE2
S11319B006945795479537952795BA95C9F7620FB9
S11119C0731F841F951FA01D0895F894FFCF78
S9030000FC
