S014000042616C616E6365526F626F742E7372656364
S11300000C94DD000C94FA000C94FA000C94FA00A1
S11300100C94FA000C94FA000C94FA000C94FA0074
S11300200C94FA000C94FA000C94FA000C94FA0064
S11300300C94FA000C94AD010C94FA000C94FA00A0
S11300400C94FA000C94FA000C94FA000C94FA0044
S11300500C94FA000C94FA000C94FA000C94FA0034
S11300600C94FA000C94FA000C94FA000C94FA0024
S11300700C94FA000C94FA000C94FA00036EDB362C
S11300803D9A9999993DABAAAA2A3E000000803F67
S1130090072C7AA5BA6CC590DA3B9365FC8BBC53EC
S11300A0F810FD3C5692834DBD879D3AB63DCBC9B1
S11300B0BF5BBE73DA0FC93F6E616E00696E660086
S11300C000407A10F35A00A0724E18090010A5D40B
S11300D0E80000E87648170000E40B54020000CA68
S11300E09A3B000000E1F5050000809698000000AE
S11300F040420F000000A08601000000102700000D
S11301000000E803000000006400000000000A0092
S1130110000000000100000000002C76D888DC6795
S11301204F0823DFC1DFAE59E1B1B796E5E3E453ED
S1130130C63AE651997696E8E6C28426EB898C9B0A
S113014062ED407C6FFCEFBC9C9F40F2BAA56FA5AA
S1130150F490055A2AF75C936B6CF9676DC11BFC2C
S1130160E0E40D47FEF520E6B500D0ED902E030047
S1130170943577050080841E080000204E0A000094
S113018000C80C333333330F986E12831141EF8D53
S11301902114893BE65516CFFEE6DB18D1844B3893
S11301A01BF77C1D901DA4BBE424203284725E22C4
S11301B08100C9F124ECA1E53D2711241FBECFEF36
S11301C0D8E0DEBFCDBF11E0A0E0B1E0ECE4FCE19B
S11301D002C005900D92AA31B107D9F721E0AAE136
S11301E0B1E001C01D92AA32B207E1F70E94CC022D
S11301F00C94240E0C9400001092B9008CE08093AF
S1130200B800089594EA9093BC004FEF50E060E08A
S113021070E0ECEBF0E09081992334F04150510907
S113022061097109C0F704C0452B462B472B41F1E6
S11302309091B900987F983011F0903119F580931E
S1130240BB0084E88093BC008FEF90E0A0E0B0E0B6
S1130250ECEBF0E0208122232CF00197A109B109F5
S1130260C8F704C0892B8A2B8B2B71F09091B900AD
S1130270987F983159F081E0903449F480E00895F2
S113028081E0089581E0089581E0089580E0089573
S113029084E98093BC0080E090E0ECEBF0E0208106
S11302A024FF05C00196811521E09207C1F7089546
S11302B08093BB0084E88093BC008FEF90E0A0E0C3
S11302C0B0E0ECEBF0E0208122232CF00197A109AF
S11302D0B109C8F704C0892B8A2B8B2B41F090916C
S11302E0B900987F81E0983219F480E0089581E0A4
S11302F0089584EC8093BC008FEF90E0A0E0B0E020
S1130300ECEBF0E0208122232CF00197A109B10944
S1130310C8F704C0892B8A2B8B2B19F08091BB0062
S1130320089580E0089584E88093BC008FEF90E006
S1130330A0E0B0E0ECEBF0E0208122232CF0019768
S1130340A109B109C8F704C0892B8A2B8B2B19F09A
S11303508091BB00089580E008951F920F920FB61C
S11303600F921124CF92DF92EF92FF920F931F937B
S11303702F933F934F935F936F937F938F939F93A9
S1130380AF93BF93EF93FF93CF93DF93CDB7DEB7D4
S1130390A697DEBFCDBFFE0139968EE1DF011D9227
S11303A08A95E9F7CE0105967C018C019C01A80190
S11303B0BE016F5F7F4FC8010E947B0469817A810F
S11303C08B819C810E94FC0520E030E044E353E4EF
S11303D00E94D6072BED3FE049E450E40E941C063E
S11303E00E948E06C62ED72E862F9D2D0E944A056A
S11303F0162F072FF82EE92E20E030E0A9010E94E5
S11304001706811103C00E94F10270C020E030E0A1
S1130410A901612F702F8F2D9E2D0E94D1071816D0
S11304209CF5212F302F4F2D5E2D60E070E082E58A
S113043093E40E948F0520E030E0A9010E94170692
S1130440882374F48FEF0E94DF0210E000E00F2E87
S1130450FFE7FF2EF02D0F2EF3E4EF2EF02D46C014
S113046020E030E044E352E4612F702F8F2D9E2D65
S11304700E949005162F072FF82EE92E0E9495064C
S1130480862F0E94DF0232C020E030E042E553E4D0
S1130490612F702F8F2D9E2D0E94900520E030E05B
S11304A0A9010E941706882374F48FEF0E94E802C2
S11304B010E000E00F2EFFE7FF2EF02D0F2EF3E4E7
S11304C0EF2EF02D13C0212F302F4F2D5E2D60E025
S11304D070E084E392E40E948F05162F072FF82E14
S11304E0E92E0E949506862F0E94E802EF92FF9261
S11304F00F931F93DF92CF9280E091E09F938F93AD
S11305008E01075F1F4F1F930F930E94A40DC80114
S11305100E9480050FB6F894DEBF0FBECDBFA6962D
S11305200FB6F894DEBF0FBECDBFDF91CF91FF9120
S1130530EF91BF91AF919F918F917F916F915F9157
S11305404F913F912F911F910F91FF90EF90DF906A
S1130550CF900F900FBE0F901F901895E1E8F0E038
S1130560808188608083808185608083EFE6F0E00D
S11305708081826080838CE990E0909389008093ED
S1130580880008950E94CF0278940E94FC030E9480
S1130590AE020E946C0508950E94C202FFCF84B58A
S11305A0836084BD84B5806A84BD85B5816085BD62
S11305B084B1886184B981B18F6081B9089587BDA0
S11305C088BD82B1896082B982B1897F82B9089578
S11305D087BD88BD82B1867F82B982B1866082B9C7
S11305E0089582B18F6082B90895AF92BF92CF927D
S11305F0DF92FF920F931F93CF93DF936623B9F19A
S1130600C52FD42FF62E182F80ED0E940201812FC2
S11306100E94580183E08A95F1F7000081ED0E9461
S113062002010D2F1C2FCC24CA94CF0CD12CEFEF38
S1130630CE1ADE0AC0E0D0E0AF2CB12CF1E0AF1A44
S1130640B108AC16BD0629F40E949301F801808319
S113065004C00E947901F801808321960F5F1F4F27
S1130660CC15DD0571F7CF2D0E94480101C0C0E013
S11306708C2FDF91CF911F910F91FF90DF90CF903E
S1130680BF90AF900895AB0161E00E94F502089518
S1130690EF92FF920F931F93CF93DF936623D1F0D2
S11306A07A01162FC82F80ED0E9402018C2F0E9420
S11306B05801E7016FEF610F062F10E00F5F1F4F26
S11306C00E0D1F1D89910E945801C017D107D1F743
S11306D00E944801DF91CF911F910F91FF90EF90FD
S11306E00895CF93DF931F92CDB7DEB76983AE0130
S11306F04F5F5F4F61E00E9448030F90DF91CF91FD
S11307000895EF92FF920F931F93CF93DF931F925D
S1130710CDB7DEB7442389F1F22E142F062FE82E2D
S11307201982BE016F5F7F4F0E944303882329F122
S1130730402F50E0411B51094F5F5F4F81E090E033
S113074002C0880F991F1A95E2F70197042E02C080
S1130750880F991F0A94E2F72F2D30E002C0220F70
S1130760331F4A95E2F7682F6095998169238223A4
S1130770682B69838E2D0E9471030F90DF91CF91B6
S11307801F910F91FF90EF900895FF920F931F9385
S1130790CF93DF931F92CDB7DEB7182F062FF42E19
S11307A0BE016F5F7F4F0E944303FF2051F061E061
S11307B070E002C0660F771F0A95E2F78981682B03
S11307C00AC061E070E002C0660F771F0A95E2F785
S11307D06095898168236983812F0E9471030F903A
S11307E0DF91CF911F910F91FF90089540E066E053
S11307F08BE60E94C50308950E94FC0083E08A955D
S1130800F1F7000087EA91E60197F1F700C00000D4
S11308100E94F60383EC99E00197F1F700C0000011
S113082021E043E062E08BE60E94810323E043E0A1
S113083062E08AE10E94810364E089E10E9471031D
S113084020E042E064E08BE10E94810320E042E08A
S113085064E08CE10E94810308958F929F92AF928D
S1130860BF92CF92DF92EF92FF920F931F93CF9399
S1130870DF934C015B016A01E9014CE151E06EE058
S11308808BE30E94F502ECE1F1E02081818190E0AC
S1130890922BD4018D939C932281838190E0922B9F
S11308A0D5018D939C932481858190E0922BD60170
S11308B08D939C932085818590E0922B99838883E6
S11308C02285838590E0922BD8018D939C93248577
S11308D0858590E0922BF70191838083DF91CF91FE
S11308E01F910F91FF90EF90DF90CF90BF90AF904A
S11308F09F908F9008952F923F924F925F926F92A4
S11309007F928F929F92AF92BF92CF92DF92EF929B
S1130910FF920F931F93CF93DF93CDB7DEB72C973E
S11309200FB6F894DEBF0FBECDBF3C014B015A0198
S11309306901280117011A8219821C821B821E82F6
S11309401D8218861F821A8619861C861B86CE0174
S11309500B967C018E01075F1F4F9E01295F3F4F5D
S1130960AE014B5F5F4FBE016D5F7F4F0A970E94E0
S11309702D0469817A81072E000C880B990B0E9443
S1130980C60620E030E040E858E30E94D607F301B1
S113099060837183828393836B817C81072E000C37
S11309A0880B990B0E94C60620E030E040E858E32B
S11309B00E94D607F40160837183828393836D81DF
S11309C07E81072E000C880B990B0E94C60620E03E
S11309D030E040E858E30E94D607F5016083718354
S11309E0828393836F817885665D7F4F072E000C29
S11309F0880B990B0E94C60623E333E343E851E4D2
S1130A000E941C06F6016083718382839383698547
S1130A107A8569507109072E000C880B990B0E9486
S1130A20C60623E333E343E851E40E941C06F201C3
S1130A3060837183828393836B857C85635E7F4F40
S1130A40072E000C880B990B0E94C60623E333E3A0
S1130A5043E851E40E941C06F101608371838283A0
S1130A6093832C960FB6F894DEBF0FBECDBFDF91F3
S1130A70CF911F910F91FF90EF90DF90CF90BF9097
S1130A80AF909F908F907F906F905F904F903F902A
S1130A902F90089566277727681B790B80911A0198
S1130AA090911B019B01281B390BC90170931B01F9
S1130AB060931A019B01220F331F220F331F64E638
S1130AC070E00E941B0C620F731F072E000C880B32
S1130AD0990B0E94C60608951092C50087E680937C
S1130AE0C40088E18093C10086E08093C200089529
S1130AF0E0ECF0E0908195FFFDCF8093C60008956F
S1130B00CF93DF93EC018881882331F021960E94F2
S1130B10780589918111FBCFDF91CF9108955058C9
S1130B20BB27AA270E94A7050C9497070E94890750
S1130B3038F00E94900720F039F49F3F19F426F40E
S1130B400C944B070EF4E095E7FB0C944507E92F52
S1130B500E94A80758F3BA1762077307840795071A
S1130B6020F079F4A6F50C94CA070EF4E0950B2E48
S1130B70BA2FA02D0B01B90190010C01CA01A001EB
S1130B801124FF27591B99F0593F50F4503E68F146
S1130B901A16F040A22F232F342F4427585FF3CF87
S1130BA0469537952795A795F0405395C9F77EF458
S1130BB01F16BA0B620B730B840BBAF09150A1F0A1
S1130BC0FF0FBB1F661F771F881FC2F70EC0BA0F27
S1130BD0621F731F841F48F4879577956795B795AF
S1130BE0F7959E3F08F0B0CF9395880F08F09927AA
S1130BF0EE0F9795879508959F939F77EEE3893736
S1130C009E0728F4ECE7F0E00E9475070CC00E94F0
S1130C1001079058A2EA2AED3FE049EC5FE30E9405
S1130C20A7050E9497070F9007FC905808950E940B
S1130C30210708F481E008950E9430060C94970778
S1130C400E94900758F00E94890740F029F45F3F02
S1130C5029F00C94450751110C94CB070C944B07C5
S1130C600E94A80768F39923B1F3552391F3951BC8
S1130C70550BBB27AA2762177307840738F09F5FB9
S1130C805F4F220F331F441FAA1FA9F335D00E2E26
S1130C903AF0E0E832D091505040E695001CCAF793
S1130CA02BD0FE2F29D0660F771F881FBB1F261756
S1130CB037074807AB07B0E809F0BB0B802DBF012D
S1130CC0FF2793585F4F3AF09E3F510578F00C94FC
S1130CD045070C94CB075F3FE4F3983ED4F3869525
S1130CE077956795B795F7959F5FC9F7880F911D1D
S1130CF09695879597F90895E1E0660F771F881F09
S1130D00BB1F621773078407BA0720F0621B730BBB
S1130D10840BBA0BEE1F88F7E09508950E949506A0
S1130D206894B1110C94CB0708950E94B00788F021
S1130D309F5798F0B92F9927B751B0F0E1F0660F9B
S1130D40771F881F991F1AF0BA95C9F714C0B130DC
S1130D5091F00E94CA07B1E008950C94CA07672F66
S1130D60782F8827B85F39F0B93FCCF3869577950B
S1130D706795B395D9F73EF49095809570956195F4
S1130D807F4F8F4F9F4F0895E89409C097FB3EF41F
S1130D9090958095709561957F4F8F4F9F4F9923C4
S1130DA0A9F0F92F96E9BB279395F6958795779542
S1130DB06795B795F111F8CFFAF4BB0F11F460FF02
S1130DC01BC06F5F7F4F8F4F9F4F16C0882311F05A
S1130DD096E911C0772321F09EE8872F762F05C06E
S1130DE0662371F096E8862F70E060E02AF09A9509
S1130DF0660F771F881FDAF7880F9695879597F9FE
S1130E000895DF93CF931F930F938B01EC01E0E9D7
S1130E10F0E00E944E070E9497079801AE018B01F3
S1130E20EC0160E070E080E89FE30E948F050E947F
S1130E3049089801AE010F911F91CF91DF910C9455
S1130E40E907990F0008550FAA0BE0E8FEEF161604
S1130E501706E807F907C0F012161306E407F507AA
S1130E6098F0621B730B840B950B39F40A2661F01E
S1130E70232B242B252B21F408950A2609F4A140C1
S1130E80A6958FEF811D811D089597F99F6780E8CE
S1130E9070E060E008959FEF80EC0895DF93CF93B6
S1130EA01F930F93FF92EF92DF927B018C01689462
S1130EB006C0DA2EEF010E94E907FE01E894A5912D
S1130EC02591359145915591A6F3EF010E94A7050F
S1130ED0FE019701A801DA9469F7DF90EF90FF9083
S1130EE00F911F91CF91DF9108959F938F937F93DB
S1130EF06F93FF93EF939B01AC010E94D607EF9190
S1130F00FF910E944E072F913F914F915F910C9456
S1130F10D60700240A94161617061806090608951B
S1130F2000240A9412161306140605060895092EC1
S1130F300394000C11F4882352F0BB0F40F4BF2B30
S1130F4011F460FF04C06F5F7F4F8F4F9F4F089570
S1130F5057FD9058440F551F59F05F3F71F0479566
S1130F60880F97FB991F61F09F3F79F0879508954B
S1130F70121613061406551FF2CF4695F1DF08C06A
S1130F80161617061806991FF1CF86957105610587
S1130F9008940895E894BB2766277727CB0197F92F
S1130FA008950E94210708F48FEF08950E94E9072D
S1130FB00C9497070E94890738F00E94900720F04C
S1130FC0952311F00C9445070C944B0711240C94B1
S1130FD0CB070E94A80770F3959FC1F3950F50E0CB
S1130FE0551F629FF001729FBB27F00DB11D639FD7
S1130FF0AA27F00DB11DAA1F649F6627B00DA11D7D
S1131000661F829F2227B00DA11D621F739FB00D22
S1131010A11D621F839FA00D611D221F749F332792
S1131020A00D611D231F849F600D211D822F762F2B
S11310306A2F11249F5750409AF0F1F088234AF008
S1131040EE0FFF1FBB1F661F771F881F9150504074
S1131050A9F79E3F510580F00C9445070C94CB07EB
S11310605F3FE4F3983ED4F3869577956795B795FB
S1131070F795E7959F5FC1F7FE2B880F911D969515
S1131080879597F9089519F416F40C944B070C946A
S113109089080E94B007B8F39923C9F3B6F39F57A0
S11310A0550B87FF0E9497080024A0E640EA9001B0
S11310B080585695979528F4805C660F771F881F93
S11310C020F026173707480730F4621B730B840B94
S11310D0202931294A2BA6951794079420253125D8
S11310E04A2758F7660F771F881F20F026173707FF
S11310F0480730F4620B730B840B200D311D411D26
S1131100A09581F7B901842F9158880F96958795FA
S113111008959F3F31F0915020F487957795679516
S1131120B795880F911D9695879597F908959150D5
S11311305040660F771F881FD2F70895A0E1B0E0F2
S1131140E4EAF8E00C942F0C7C011B016A01FC0119
S113115017821682838181FF44C39E012F5F3F4F14
S11311603901F7019381F10193FD859193FF8191F9
S11311701F01882309F431C3853239F493FD859125
S113118093FF81911F01853239F4B70190E00E94E9
S1131190680D56016501E5CF10E0512C912CFFE15B
S11311A0F915D8F08B3279F038F4803279F0833243
S11311B0A1F4F92DF0612EC08D3261F0803369F411
S11311C0292D21602DC0392D3260932E892D846004
S11311D0982E2AC0E92DE86015C097FC2DC020ED9B
S11311E0280F2A3088F496FE06C03AE0139F200D9B
S11311F01124122F19C08AE0589E200D1124522E5A
S1131200E92DE0629E2E10C08E3231F496FCE5C2C8
S1131210F92DF0649F2E08C08C3621F4292D206806
S1131220922E02C0883641F4F10193FD859193FF1B
S113123081911F018111B3CF9BEB980F933020F460
S1131240992D9061805E07C09BE9980F933008F058
S113125066C1992D9F7E96FF16E09F73992E853661
S113126019F49064992E08C0863621F4392F306819
S1131270932E02C01111115097FE07C01C3350F475
S113128044244394410E27E00BC0183038F027E083
S113129017E005C027E09CE3492E02C0212F412C12
S11312A0560184E0A80EB11CF6016081718182812F
S11312B09381042DA3010E947A0C6C01F981FC87AF
S11312C0F0FF02C0F3FF06C091FC06C092FE06C008
S11312D000E205C00DE203C00BE201C000E08C8512
S11312E08C7019F001115AC29BC297FE10C04C0CAD
S11312F0FC85F4FF04C08A81813309F44A941414F0
S113130074F528E0241578F588E0482E2CC096FC66
S11313102AC0812F90E08C159D059CF03CEFC316EC
S11313203FEFD30674F0892D8068982E0AC0E2E05E
S1131330F0E0EC0FFD1FE10FF11D8081803319F403
S113134011501111F4CF97FE0EC044244394410E62
S1131350812F90E0C816D9062CF41C1904C044242B
S1131360439401C010E097FE06C01C141D0434F41D
S1131370C601019605C085E090E002C081E090E0DE
S113138001110196112331F0212F30E02F5F3F4FDF
S1131390820F931F252D30E08217930714F4581AF7
S11313A001C0512C892D897049F4552039F0B701B9
S11313B080E290E00E94680D5A94F7CF002329F050
S11313C0B701802F90E00E94680D93FC09C055205E
S11313D039F0B70180E390E00E94680D5A94F7CF8A
S11313E097FE4CC04601D7FE02C0812C912CC60149
S11313F088199909F301E80FF91FFE87ED87960113
S113140024193109388B2F87012F10E0119501958C
S113141011093FEF8316930629F4B7018EE290E099
S11314200E94680DC814D9044CF08F8598898815DA
S1131430990524F4ED85FE85818101C080E3F1E006
S11314408F1A91082D853E852F5F3F4F3E872D874C
S1131450801691062CF0B70190E00E94680DD9CF58
S1131460C814D90441F49A81963320F4953319F4BD
S11314703C8534FF81E3B70190E04EC08A8181331B
S113148019F09C859F7E9C87B70190E00E94680DAF
S1131490111105C094FC18C085E690E017C0B7018F
S11314A08EE290E00E94680D1E5F82E001E0080F6A
S11314B0F301E80FF11D8081B70190E00E94680DEF
S11314C0802F0113F3CFE6CF85E490E0B7010E94AB
S11314D0680DD7FC06C0C114D10441F4EC85E4FFC7
S11314E005C0D194C194D1088DE201C08BE2B7014B
S11314F090E00E94680D80E32AE0C216D1042CF02B
S11315008F5FFAE0CF1AD108F7CFB70190E00E94BD
S1131510680DB701C601C0960E94680D54C1833698
S113152031F0833779F0833509F056C020C0560175
S113153032E0A30EB11CF6018081898301E010E042
S1131540630112C05601F2E0AF0EB11CF601C08077
S1131550D18096FE03C0612F70E002C06FEF7FEF71
S1131560C6010E945D0D8C01F92DFF7714C0560150
S113157022E0A20EB11CF601C080D18096FE03C009
S1131580612F70E002C06FEF7FEFC6010E94520D21
S11315908C01F92DF0689F2EF3FD1AC0852D90E083
S11315A008171907A8F4B70180E290E00E94680DBB
S11315B05A94F4CFF60197FC859197FE81916F01BF
S11315C0B70190E00E94680D51105A94015011091E
S11315D00115110579F7F7C0843611F0893661F5E4
S11315E0560197FE09C024E0A20EB11CF6016081E9
S11315F07181828193810AC0F2E0AF0EB11CF601C1
S113160060817181072E000C880B990BF92DFF76F0
S11316109F2E97FF09C090958095709561957F4F97
S11316208F4F9F4FF0689F2E2AE030E0A3010E9465
S1131630C60DC82EC6183FC0092D853721F40F7E6C
S11316402AE030E01DC0097F8F3691F018F4883508
S113165059F0C3C0803719F0883711F0BEC000615B
S113166004FF09C0046007C094FE08C0066006C0F9
S113167028E030E005C020E130E002C020E132E0A3
S1131680560107FF09C084E0A80EB11CF601608171
S113169071818281938108C0F2E0AF0EB11CF60122
S11316A06081718180E090E0A3010E94C60DC82E84
S11316B0C6180F77902E96FE0BC0092D0E7FC1160B
S11316C050F494FE0AC092FC08C0092D0E7E05C099
S11316D0DC2C092D03C0DC2C01C0D12E04FF0DC06D
S11316E0FE01EC0DF11D8081803311F4097E09C0E7
S11316F002FF06C0D394D39404C0802F867809F0E7
S1131700D39403FD11C000FF06C01C2DD51480F432
S1131710150D1D190DC0D51458F4B70180E290E0E1
S11317200E94680DD394F7CFD51410F45D1801C04E
S1131730512C04FF10C0B70180E390E00E94680DB3
S113174002FF17C001FD03C088E790E002C088E5EE
S113175090E0B7010CC0802F867859F001FF02C0D9
S11317608BE201C080E207FD8DE2B70190E00E94A8
S1131770680DC11638F4B70180E390E00E94680D4B
S11317801150F7CFCA94F301EC0DF11D8081B7011C
S113179090E00E94680DC110F5CF15C0F4E0F51576
S11317A060F584E0581A93FE1FC0011127C02C85F0
S11317B023FF2AC008EB10E0392D3071932EF80175
S11317C08491811124C0552009F4E4CCB70180E24E
S11317D090E00E94680D5A94F6CFF70186819781B4
S11317E026C08FEF9FEF23C0B70180E290E00E94F4
S11317F0680D5A945110F8CFD8CF512CB701802FCF
S113180090E00E94680DD3CF0CEB10E0D5CF91107F
S11318108052B70190E00E94680D0F5F1F4FCFCF39
S113182023E0251510F483E0BDCF512CC0CF609682
S1131830E2E10C944B0C97FB072E16F4009407D0AE
S113184077FD09D00E94660C07FC05D03EF4909504
S113185081959F4F0895709561957F4F08952F92BC
S11318603F924F925F926F927F928F929F92AF922C
S1131870BF92CF92DF92EF92FF920F931F93CF9379
S1131880DF93CDB7DEB7CA1BDB0B0FB6F894DEBF10
S11318900FBECDBF09942A88398848885F846E8436
S11318A07D848C849B84AA84B984C884DF80EE8080
S11318B0FD800C811B81AA81B981CE0FD11D0FB689
S11318C0F894DEBF0FBECDBFED010895AA1BBB1B6C
S11318D051E107C0AA1FBB1FA617B70710F0A61B2C
S11318E0B70B881F991F5A95A9F780959095BC014D
S11318F0CD010895283008F027E03327DA01990F45
S1131900311D87FD916000966105710539F43260DF
S11319102E5F3D9330E32A95E1F708959F3F30F021
S113192080387105610509F03C5F3C5F3D9391305F
S113193008F08068911DDF93CF931F930F93FF925C
S1131940EF92192F987F9695E92F96959695E90F22
S1131950FF27E65EFE4F99273327EE24FF24A701D5
S1131960E70105900894079428F4360FE71EF81E43
S1131970491F511D660F771F881F991F0694A1F7F1
S11319800590079428F4E70EF81E491F561FC11D41
S1131990770F881F991F661F0694A1F70590079477
S11319A028F4F80E491F561FC71FD11D880F991F11
S11319B0661F771F0694A1F70590079420F4490F3A
S11319C0561FC71FD81F990F661F771F881F0694BD
S11319D0A9F784911095177041F0D695C79557953E
S11319E04795F794E7941A95C1F7E0ECF0E0689412
S11319F01590159135916591959105907FE27395B8
S1131A00E118F10A430B560BC90BD009C0F7E10CDE
S1131A10F11E431F561FC91FD01D7EF4703311F4ED
S1131A208A95E6CFE894015030F0080F0AF40027B5
S1131A30021708F4202F2395022F7A3328F079E334
S1131A407D932A95E9F710C07D932A9589F606942B
S1131A5097956795379517951794E118F10A430BF5
S1131A60560BC90BD00998F023957E9173957A3360
S1131A7008F070E37C932013B8F77E9170617D9336
S1131A8030F0839571E37D9370E32A95E1F7112497
S1131A90EF90FF900F911F91CF91DF91992787FDD0
S1131AA090950895FC010590615070400110D8F79D
S1131AB0809590958E0F9F1F0895FC016150704092
S1131AC001900110D8F7809590958E0F9F1F08956F
S1131AD00F931F93CF93DF93FB01238121FD03C059
S1131AE08FEF9FEF2CC022FF16C0468157812481BF
S1131AF035814217530744F4A081B1819D012F5FC2
S1131B003F4F318320838C93268137812F5F3F4F52
S1131B103783268314C08B01EC01FB010084F1851B
S1131B20E02D0995892BE1F6D80116968D919C91AB
S1131B301797019617969C938E931697CE01DF9173
S1131B40CF911F910F910895AEE0B0E0EAEAFDE075
S1131B500C943D0C0D891E8986E08C831A830983BD
S1131B608FEF9FE79E838D83AE01475E5F4F6F8942
S1131B70788DCE0101960E949E08EF81F885E00FD2
S1131B80F11F10822E96E4E00C94590CFA01AA2756
S1131B90283051F1203181F1E8946F936E7F6E5FAC
S1131BA07F4F8F4F9F4FAF4FB1E03ED0B4E03CD05A
S1131BB0670F781F891F9A1FA11D680F791F8A1F3D
S1131BC0911DA11D6A0F711D811D911DA11D20D0A4
S1131BD009F468943F912AE0269F11243019305D5E
S1131BE03193DEF6CF010895462F4770405D41934F
S1131BF0B3E00FD0C9F7F6CF462F4F70405D4A339C
S1131C0018F0495D31FD4052419302D0A9F7EACF63
S1131C10B4E0A6959795879577956795BA95C9F792
S1131C2000976105710508959B01AC010A2E069485
S1131C305795479537952795BA95C9F7620F731F3E
S10F1C40841F951FA01D0895F894FFCF89
S1131C4C696E7075743A2025692C206F75747075E3
S10D1C5C743A20252E33660A0000B6
S9030000FC
